:100000000C9462000C948A000C948A000C948A0070
:100010000C948A000C948A000C948A000C948A0038
:100020000C948A000C948A000C948A000C948A0028
:100030000C948A000C948A000C948A000C948A0018
:100040000C9443070C948A000C9411070C94EB0653
:100050000C948A000C948A000C948A000C948A00F8
:100060000C948A000C948A000000000023002600F3
:10007000290000000008000201000003040700003E
:1000800000000000000000000000250028002B00F8
:1000900000000000240027002A00040404040404D3
:1000A0000404020202020202030303030303010227
:1000B00004081020408001020408102001020408F6
:1000C00010208D0711241FBECFEFD8E0DEBFCDBFBB
:1000D00011E0A0E0B1E0E4E8F4E102C005900D9287
:1000E000A634B107D9F722E0A6E4B1E001C01D9221
:1000F000AE30B207E1F710E0C2E6D0E004C02197CD
:10010000FE010E94350AC136D107C9F70E94CB070C
:100110000C94400A0C94000090E0FC01E255FF4F63
:100120002491FC01E656FF4F8491882399F090E0DA
:10013000880F991FFC01E057FF4FA591B491FC0176
:10014000EA57FF4F859194918FB7F894EC91E22B89
:10015000EC938FBF0895CF92DF92EF92FF920F93AF
:100160001F93CF93DF936C017A018B01C0E0D0E045
:10017000CE15DF0589F0D8016D918D01D601ED9185
:10018000FC910190F081E02DC6010995892B11F4B5
:100190007E0102C02196ECCFC701DF91CF911F9164
:1001A0000F91FF90EF90DF90CF900895089580E039
:1001B00090E00895FC01538D448D252F30E0842F6D
:1001C00090E0821B930B541710F0CF96089501977F
:1001D0000895FC01918D828D981761F0828DDF0169
:1001E000A80FB11D5D968C91928D9F5F9F73928F2A
:1001F00090E008958FEF9FEF0895FC01918D828D1F
:10020000981731F0828DE80FF11D858D90E00895EB
:100210008FEF9FEF0895FC01918D228D892F90E043
:10022000805C9F4F821B91098F73992708958CE5FD
:1002300091E00E940B0121E0892B09F420E0822F3C
:100240000895FC01848DDF01A80FB11DA35ABF4F93
:100250002C91848D90E001968F739927848FA689C5
:10026000B7892C93A089B1898C9180648C93938DEC
:10027000848D981306C00288F389E02D80818F7DDC
:1002800080830895EF92FF920F931F93CF93DF9394
:10029000EC0181E0888F9B8D8C8D981305C0E889D7
:1002A000F989808185FD24C0F62E0B8D10E00F5F4B
:1002B0001F4F0F731127E02E8C8DE8120CC00FB664
:1002C00007FCFACFE889F989808185FFF5CFCE0157
:1002D0000E942101F1CF8B8DFE01E80FF11DE35A41
:1002E000FF4FF0820B8FEA89FB898081806207C013
:1002F000EE89FF896083E889F98980818064808341
:1003000081E090E0DF91CF911F910F91FF90EF90EE
:100310000895CF93DF93EC01888D8823C9F0EA8993
:10032000FB89808185FD05C0A889B9898C9186FDEE
:100330000FC00FB607FCF5CF808185FFF2CFA889EB
:10034000B9898C9185FFEDCFCE010E942101E7CFC5
:10035000DF91CF91089580E090E0892B29F00E94F1
:10036000170181110C9400000895833081F028F466
:10037000813099F08230A1F008958730A9F088305B
:10038000B9F08430D1F4809180008F7D03C08091DA
:1003900080008F7780938000089584B58F7702C0A6
:1003A00084B58F7D84BD08958091B0008F7703C0A0
:1003B0008091B0008F7D8093B00008951F93CF93FC
:1003C000DF93282F30E0F901EE58FF4F8491F901B7
:1003D000E255FF4FD491F901E656FF4FC491CC236B
:1003E000C9F0162F81110E94B501EC2FF0E0EE0F3D
:1003F000FF1FEA57FF4FA591B4918FB7F8941111E1
:1004000005C09C91ED2FE095E92302C0EC91ED2B06
:10041000EC938FBFDF91CF911F9108953FB7F89470
:1004200080914B0190914C01A0914D01B0914E01F2
:1004300026B5A89B05C02F3F19F00196A11DB11D3F
:100440003FBFBA2FA92F982F8827820F911DA11D7A
:10045000B11DBC01CD0142E0660F771F881F991FB7
:100460004A95D1F708958F929F92AF92BF92CF9203
:10047000DF92EF92FF926B017C010E940E024B0112
:100480005C01C114D104E104F104F1F00E940E02F8
:10049000DC01CB0188199909AA09BB09883E934060
:1004A000A105B10570F321E0C21AD108E108F108F5
:1004B00088EE880E83E0981EA11CB11CC114D104E3
:1004C000E104F10419F7DDCFFF90EF90DF90CF90BA
:1004D000BF90AF909F908F900895DC01ED91FD91BA
:1004E000BD010190F081E02D40E0099591E081117E
:1004F00090E0892F089508958EBD00000DB407FE89
:10050000FDCF8EB508958CBD9DBD0895CF92DF922D
:10051000EF92FF920F931F93CF93DF9300D0CDB74D
:10052000DEB78C01F62EFC018289938949835A83B8
:100530000E94830260E0F80186850E94DE0182E16C
:100540000E947C024981E42EC42E5A81D52E8C2D26
:100550008E198F1530F4F60181916F010E947C0293
:10056000F6CF61E0F80186850F900F90DF91CF9173
:100570001F910F91FF90EF90DF90CF900C94DE01D0
:100580001F93CF93DF93EC01162F8A899B890E94DA
:10059000830260E08E850E94DE01812F80680E94C8
:1005A0007C0280E00E947C02182F61E08E850E9410
:1005B000DE01812FDF91CF911F910895EF92FF927D
:1005C0001F93CF93DF931F92CDB7DEB77C01162F19
:1005D000FC018289938949830E94830260E0F701CC
:1005E00086850E94DE01812F0E947C024981842F32
:1005F0000E947C0261E0F70186850F90DF91CF9128
:100600001F91FF90EF900C94DE01CF92DF92EF925A
:10061000FF920F931F93CF93DF93EC016B01142F85
:10062000790140E062E00E94DE0244E06AE0CE012F
:100630000E94DE0240E864E1CE010E94DE02A601D3
:10064000612FCE010E94860243E062E0CE010E944B
:10065000DE0208E813E16AE0CE010E94C00282FFD8
:1006600013C040E062E0CE010E94DE0264E4CE01ED
:100670000E94C002F701808362E4CE010E94C002A2
:10068000F701818380E004C00150110921F783E064
:10069000DF91CF911F910F91FF90EF90DF90CF905E
:1006A00008954F925F926F927F928F929F92AF9236
:1006B000BF92CF92DF92EF92FF920F931F93CF934F
:1006C000DF9300D0CDB7DEB74C012B01D42E39011A
:1006D000E114F10419F0F701408101C040E0B42EAB
:1006E000F0E1CF9EB00C112440E062E0C4010E9412
:1006F000DE024FE768E0C4010E94DE0240E864E1E8
:10070000C4010E94DE02A2016D2DC4010E94860276
:100710004B2D6AE1C4010E94DE024CE062E0C4019C
:100720000E94DE026AE1C4010E94C002482F4068B4
:100730006AE1C4010E94DE0280ED482E87E0582E57
:1007400068E0C4010E94C002982F907341F480FDBC
:1007500004C081E0481A510899F783E09FC06CE01B
:10076000C4010E94C002D82E837109F096C06114A2
:10077000710409F458C00115110509F454C064E16D
:10078000C4010E94C002B82EF80180818B1508F4C4
:100790007EC0B082BB20E1F1F401828993890E947E
:1007A000830260E0F40186850E94DE0182E90E94F6
:1007B0007C02CC20A1F08FEF90E02C0101C0440C12
:1007C000CA94EAF782E90E947C0284214094F301F2
:1007D0009081492284298083CC24C39401C0C12CF8
:1007E000BA944C2C512C460C571CCB1438F482E98B
:1007F0000E947C02F2018083C394F3CF80E00E94C8
:100800007C02F201808361E0F40186850E94DE01B2
:1008100068E1C4010E94C0028770E114F10421F074
:10082000F701808301C080E0D3FC33C06114710400
:1008300091F10115110579F1AA2069F1F8014081C2
:10084000413019F4843019F420C0423010F487E0AC
:1008500025C08111FCCF42509E012F5F3F4FB30155
:10086000C4010E940503811119C0F8018081680E3E
:10087000711CF3013297908189819813E8CF3196EA
:1008800090818A819813E3CF06C08FEF07C084E080
:1008900005C082E003C080E001C081E00F900F90AE
:1008A000DF91CF911F910F91FF90EF90DF90CF904C
:1008B000BF90AF909F908F907F906F905F904F9080
:1008C0000895EF92FF921F93CF93DF931F92CDB7BE
:1008D000DEB77C01162F49830E94C00249814095F2
:1008E0004823612FC7010F90DF91CF911F91FF9097
:1008F000EF900C94DE028F929F92AF92CF92EF9284
:10090000FF920F931F93CF93DF9300D000D01F92DD
:10091000CDB7DEB74C0182E08D8340E064E2C401D4
:100920000E94DE0240E066E2C4010E94DE0246E26E
:1009300068E4C4010E94DE0286E28C838D818230ED
:1009400018F140E86CE1C4010E94610487E08B83E8
:10095000A12CC12CCE0103967C018E010B5F1F4F91
:100960009E012F5F3F4F41E0BE016C5F7F4FC4018E
:100970000E94510381110BC08D81823039F481E0D6
:100980009B81911104C008C084E001C081E091E026
:10099000823019F090E001C091E0892F0F900F9004
:1009A0000F900F900F90DF91CF911F910F91FF90BB
:1009B000EF90CF90AF909F908F9008952F923F929D
:1009C0004F925F926F927F928F929F92AF92BF925F
:1009D000CF92DF92EF92FF920F931F93CF93DF930B
:1009E000CDB7DEB72D970FB6F894DEBF0FBECDBFE3
:1009F000413508F00BC1342E3B014C0140E86CE15D
:100A00000E946104BB24B39422E0B21691F033E05B
:100A1000B316E1F041E0B412FDC083E989833320CD
:100A2000D1F081E0F3019081953008F480E0D12C81
:100A300017C085E98983332081F081E0F30190813B
:100A4000983008F480E053E0D52E0AC087E9898306
:100A500046E0D42E04C0D12C02C033E0D32E80E077
:100A6000532DF8EFDF9E500D112457FD50E08823E1
:100A700021F098E89B8343E001C042E021E0952FFC
:100A8000977009F420E0952F959595959595290FE8
:100A900021F4882311F1585F20C0811102C094E035
:100AA00001C093E0291708F4922F20E030E06D2D6B
:100AB00070E0E42FE20FA1E0B0E0AC0FBD1FAE0F7D
:100AC000B11DF901E60FF71FE60DF71DE181EC936B
:100AD0002F5F3F4F291768F3DCCF23E0222E5032DF
:100AE000FCF020E72A839C818B8189279D818927BF
:100AF0009E8189278F839E01285F3F4F47E0BE017B
:100B00006F5F7F4FC4015D870E9405035D85811182
:100B1000CDC01B862A86CE0107962C0179E01EC027
:100B2000952F97709B87252F25952595259582E0F4
:100B3000820F392FE0E18E9F300D11243A8371E04E
:100B4000911101C070E0780F44244394512C4C0E55
:100B50005D1E480E511C87E0821B8A87CB844C2D7A
:100B60004295407F4C0D6AE1C4015D877C870E94FD
:100B7000DE02A12C9E01255F3F4F79018E01065FA9
:100B80001F4F92017C85472FBE016F5F7F4FC401CD
:100B90000E9451035D85823099F56CE1C4010E9489
:100BA000C0025D8585FD34C08F7109F480E2282F75
:100BB00030E0452F550F550B421753075CF5582F62
:100BC000C90101978770992725952595259531E0CD
:100BD000320F21E0009709F420E0230FE1E0F0E07C
:100BE000EC0FFD1FE20FF11D21E030E002C0220FEB
:100BF000331F8A95E2F7C9019081892B80836FCFDB
:100C0000811154C0503244F450E26BCF86E04EC0A4
:100C100082E04CC085E04AC08B81883809F043C02F
:100C200033E023E080E090E06D2D70E0FC01E60F02
:100C3000F71FE60DF71D432F480FA1E0B0E0AC0F02
:100C4000BD1FA40FB11D4C9141830196821770F313
:100C50008A85833021F58B85811121C09E012D5F0E
:100C60003F4F41E0B201C4010E94050381111EC043
:100C70009B81F2018181981314C09C818281981319
:100C800010C0808182FF02C0B394BECEF30183877F
:100C90008B2D880FB80EB394B08280E007C081E03E
:100CA00005C087E003C032E024E0BCCF2D960FB62C
:100CB000F894DEBF0FBECDBFDF91CF911F910F9192
:100CC000FF90EF90DF90CF90BF90AF909F908F906C
:100CD0007F906F905F904F903F902F900895009776
:100CE00069F0FC0101900020E9F73197AF01481B42
:100CF000590BBC018CE591E00C94AB0080E090E0D6
:100D000008958F929F92AF92BF920F931F93CF93AC
:100D1000DF93CDB7DEB7A1970FB6F894DEBF0FBE55
:100D2000CDBF19A2423008F44AE08E010F5D1F4F7B
:100D3000842E912CA12CB12CA50194010E94130AA0
:100D4000E62FB901CA0101501109EA3014F4E05D3F
:100D500001C0E95CD801EC93232B242B252B61F7F0
:100D6000C8010E946F06A1960FB6F894DEBF0FBEB1
:100D7000CDBFDF91CF911F910F91BF90AF909F900A
:100D80008F900895CF92DF92EF92FF92CF93DF93EF
:100D90006B017C01E0915C01F0915D010190F081BB
:100DA000E02D6DE28CE591E00995EC01662777274F
:100DB000CB016C197D098E099F094AE00E948106CA
:100DC0008C0F9D1FDF91CF91FF90EF90DF90CF9020
:100DD00008950E943B0A1F920F920FB60F921124A2
:100DE0002F933F934F935F936F937F938F939F9333
:100DF000AF93BF93EF93FF938CE591E00E942101A5
:100E0000FF91EF91BF91AF919F918F917F916F91E2
:100E10005F914F913F912F910F900FBE0F901F90B8
:100E200018951F920F920FB60F9211242F938F9344
:100E30009F93EF93FF93E0916C01F0916D0180819E
:100E4000E0917201F091730182FD12C09081809156
:100E500075018F5F8F7320917601821751F0E091B9
:100E60007501F0E0E45AFE4F958F8093750101C043
:100E70008081FF91EF919F918F912F910F900FBEE5
:100E80000F901F9018951F920F920FB60F9211247A
:100E90002F933F938F939F93AF93BF93809147017D
:100EA00090914801A0914901B0914A0130914601C9
:100EB00023E0230F2D3720F40196A11DB11D05C09D
:100EC00026E8230F0296A11DB11D209346018093B1
:100ED000470190934801A0934901B0934A01809142
:100EE0004B0190914C01A0914D01B0914E010196A2
:100EF000A11DB11D80934B0190934C01A0934D0116
:100F0000B0934E01BF91AF919F918F913F912F91DF
:100F10000F900FBE0F901F901895ECE5F1E0138233
:100F2000128288EE93E0A0E0B0E084839583A683EC
:100F3000B78380E191E09183808385EC90E0958791
:100F4000848784EC90E09787868780EC90E0918B93
:100F5000808B81EC90E0938B828B82EC90E0958B80
:100F6000848B86EC90E0978B868B118E128E138E7D
:100F7000148EEAEFF1E082E291E0918380838AE0CF
:100F8000868789E0878789EF91E0918B808B83E565
:100F9000828B138A0895CF93DF9300D000D0CDB712
:100FA000DEB7789484B5826084BD84B5816084BDE9
:100FB00085B5826085BD85B5816085BD80916E00F7
:100FC000816080936E001092810080918100826028
:100FD0008093810080918100816080938100809165
:100FE00080008160809380008091B1008460809354
:100FF000B1008091B00081608093B00080917A0050
:10100000846080937A0080917A00826080937A0075
:1010100080917A00816080937A0080917A00806864
:1010200080937A001092C100E0916C01F0916D0103
:1010300082E08083E0916801F09169011082E09183
:101040006A01F0916B018FEC808310927401E09142
:101050007001F091710186E08083E0916E01F09162
:101060006F01808180618083E0916E01F0916F015A
:10107000808188608083E0916E01F0916F018081B2
:1010800080688083E0916E01F0916F0180818F7D97
:1010900080831FB7F89480914F01811124C0E4EA46
:1010A000F0E08491E8EBF0E09491E82FF0E0EE0FAF
:1010B000FF1FE057FF4FA591B491EC91E92321F474
:1010C00061E08AE00E94DE018AE00E948C008CB51B
:1010D00080618CBD8CB580648CBD8DE00E948C00DD
:1010E0008BE00E948C0080914F018F5F80934F01B5
:1010F0001FBF809108020E948C0061E0809108026D
:101100000E94DE01809109028F3F69F44FE062E0A6
:101110008AEF91E00E94DE0262E370E080E090E0FE
:101120000E94330224C00E948C002091090230E00A
:10113000F901EE58FF4F8491F901E255FF4F0491F8
:10114000F901E656FF4F1491112309F460C1811192
:101150000E94B501E12FF0E0EE0FFF1FE859FF4FAD
:10116000A591B491EC91E02309F451C1CFCF62E095
:101170008AEF91E00E94C00284FDF9CF40E064E272
:101180008AEF91E00E94DE0240E066E28AEF91E0A1
:101190000E94DE0246E268E48AEF91E00E94DE02ED
:1011A00040E864E58AEF91E00E94DE0249EA66E5E4
:1011B0008AEF91E00E94DE0243E068E58AEF91E069
:1011C0000E94DE0248EE6AE58AEF91E00E94DE02AC
:1011D00040E46AE28AEF91E00E94DE024DE362E2BF
:1011E0008AEF91E00E94DE0268E28AEF91E00E94BD
:1011F000C002982F9370933039F0482F436068E213
:101200008AEF91E00E94DE028FEF8093500180937D
:101210005101809352018093530180935401809334
:1012200055019DEF892E91E0992E88E591E024E00B
:10123000D22ED80E30E5B32E8AEF91E00E947B04C7
:10124000882309F4E1C08AEF91E00E946D028823AF
:1012500009F4DAC08091560190915701E8E5F1E078
:10126000ADEFB1E02D912193820F911DDE12FACFE7
:101270009093570180935601C090FC010DEF11E04F
:10128000802F88198C15B8F47801F801808180319D
:1012900018F08EE391E002C088E291E00E946F06B0
:1012A0000F5F1F4FF701608170E080E090E040E148
:1012B0000E948106E5CF61E087E00E94DE0168EED2
:1012C00073E080E090E00E94330260E087E00E94DB
:1012D000DE0168EE73E080E090E00E9433028BE272
:1012E00091E00E946F06B9821A829E012D5F3F4FE6
:1012F00042E0BE016F5F7F4F8AEF91E00E940503DD
:10130000811110C0A12CC12CE12CF12C00E010E0C7
:1013100020E030E044E0BE016F5F7F4F8AEF91E054
:101320000E9451038EE291E00E946F066091560187
:1013300070915701072E000C880B990B97FF03C083
:101340000E94C20603C04AE00E94810648E060E1B4
:101350008AEF91E00E94610480E0E82E81E0F82E9F
:1013600000E010E0F70122813381809156019091D5
:10137000570128173907E1F48EE391E00E946F06C8
:101380008BE291E00E946F06F70160817181072E68
:10139000000C880B990B97FF03C00E94C20603C084
:1013A0004AE00E9481068BE291E00E946F0628C00D
:1013B00003301105E1F461E086E00E94DE0168EE91
:1013C00073E080E090E00E94330260E086E00E94DB
:1013D000DE0168EE73E080E090E00E94330280E47A
:1013E00091E00E946F068BE291E00E946F060F5F12
:1013F0001F4FF4E0EF0EF11C0430110509F0B2CFDD
:1014000010925701109256010E94AB0115CF61E076
:10141000809109020E94DE0162E370E080E090E0CA
:101420000E943302ABCEA1E21A2EAA1BBB1BFD0108
:101430000DC0AA1FBB1FEE1FFF1FA217B307E407B3
:10144000F50720F0A21BB30BE40BF50B661F771F0B
:10145000881F991F1A9469F76095709580959095EB
:101460009B01AC01BD01CF010895EE0FFF1F059058
:10147000F491E02D099481E090E0F8940C94400AF6
:04148000F894FFCF0E
:101484000100410202009101030009000000000074
:101494004201AB00DA0089010B01E900FD00000004
:1014A4000000DE047B046D022030000D0A00746825
:1014B400697320697320746865205549443A200093
:0614C40064657270000077
:107E0000112484B714BE81FFF0D085E080938100F7
:107E100082E08093C00088E18093C10086E0809377
:107E2000C20080E18093C4008EE0C9D0259A86E02C
:107E300020E33CEF91E0309385002093840096BBD3
:107E4000B09BFECF1D9AA8958150A9F7CC24DD24C4
:107E500088248394B5E0AB2EA1E19A2EF3E0BF2EE7
:107E6000A2D0813461F49FD0082FAFD0023811F036
:107E7000013811F484E001C083E08DD089C08234E0
:107E800011F484E103C0853419F485E0A6D080C0E4
:107E9000853579F488D0E82EFF2485D0082F10E0AE
:107EA000102F00270E291F29000F111F8ED06801E7
:107EB0006FC0863521F484E090D080E0DECF843638
:107EC00009F040C070D06FD0082F6DD080E0C81688
:107ED00080E7D80618F4F601B7BEE895C0E0D1E017
:107EE00062D089930C17E1F7F0E0CF16F0E7DF06D8
:107EF00018F0F601B7BEE89568D007B600FCFDCFD4
:107F0000A601A0E0B1E02C9130E011968C91119780
:107F100090E0982F8827822B932B1296FA010C0160
:107F200087BEE89511244E5F5F4FF1E0A038BF0790
:107F300051F7F601A7BEE89507B600FCFDCF97BE46
:107F4000E89526C08437B1F42ED02DD0F82E2BD052
:107F50003CD0F601EF2C8F010F5F1F4F84911BD097
:107F6000EA94F801C1F70894C11CD11CFA94CF0C13
:107F7000D11C0EC0853739F428D08EE10CD085E9AC
:107F80000AD08FE07ACF813511F488E018D01DD067
:107F900080E101D065CF982F8091C00085FFFCCF94
:107FA0009093C60008958091C00087FFFCCF809118
:107FB000C00084FD01C0A8958091C6000895E0E648
:107FC000F0E098E1908380830895EDDF803219F02E
:107FD00088E0F5DFFFCF84E1DECF1F93182FE3DFCA
:107FE0001150E9F7F2DF1F91089580E0E8DFEE27F6
:047FF000FF270994CA
:027FFE00040479
:0400000300007E007B
:00000001FF
